{
  "contractName": "Battles",
  "abi": [
    {
      "inputs": [
        {
          "internalType": "address",
          "name": "_wrestlersContractAddress",
          "type": "address"
        }
      ],
      "stateMutability": "nonpayable",
      "type": "constructor"
    },
    {
      "anonymous": false,
      "inputs": [
        {
          "indexed": false,
          "internalType": "uint256",
          "name": "battleIndex",
          "type": "uint256"
        },
        {
          "indexed": false,
          "internalType": "address",
          "name": "winner",
          "type": "address"
        }
      ],
      "name": "BattleResolved",
      "type": "event"
    },
    {
      "anonymous": false,
      "inputs": [
        {
          "indexed": false,
          "internalType": "uint256",
          "name": "battleIndex",
          "type": "uint256"
        },
        {
          "indexed": false,
          "internalType": "uint256",
          "name": "wrestler1Index",
          "type": "uint256"
        },
        {
          "indexed": false,
          "internalType": "uint256",
          "name": "wrestler2Index",
          "type": "uint256"
        },
        {
          "indexed": false,
          "internalType": "address",
          "name": "player1",
          "type": "address"
        },
        {
          "indexed": false,
          "internalType": "address",
          "name": "player2",
          "type": "address"
        }
      ],
      "name": "NewBattle",
      "type": "event"
    },
    {
      "anonymous": false,
      "inputs": [
        {
          "indexed": true,
          "internalType": "address",
          "name": "previousOwner",
          "type": "address"
        },
        {
          "indexed": true,
          "internalType": "address",
          "name": "newOwner",
          "type": "address"
        }
      ],
      "name": "OwnershipTransferred",
      "type": "event"
    },
    {
      "inputs": [],
      "name": "owner",
      "outputs": [
        {
          "internalType": "address",
          "name": "",
          "type": "address"
        }
      ],
      "stateMutability": "view",
      "type": "function"
    },
    {
      "inputs": [],
      "name": "renounceOwnership",
      "outputs": [],
      "stateMutability": "nonpayable",
      "type": "function"
    },
    {
      "inputs": [
        {
          "internalType": "address",
          "name": "newOwner",
          "type": "address"
        }
      ],
      "name": "transferOwnership",
      "outputs": [],
      "stateMutability": "nonpayable",
      "type": "function"
    },
    {
      "inputs": [],
      "name": "startGame",
      "outputs": [],
      "stateMutability": "nonpayable",
      "type": "function"
    },
    {
      "inputs": [
        {
          "internalType": "uint256",
          "name": "wrestler1Index",
          "type": "uint256"
        },
        {
          "internalType": "uint256",
          "name": "wrestler2Index",
          "type": "uint256"
        },
        {
          "internalType": "address",
          "name": "player1",
          "type": "address"
        },
        {
          "internalType": "address",
          "name": "player2",
          "type": "address"
        }
      ],
      "name": "createBattle",
      "outputs": [],
      "stateMutability": "nonpayable",
      "type": "function"
    },
    {
      "inputs": [
        {
          "internalType": "uint256",
          "name": "_battleIndex",
          "type": "uint256"
        }
      ],
      "name": "resolveBattle",
      "outputs": [],
      "stateMutability": "nonpayable",
      "type": "function"
    }
  ],
  "bytecode": "0x60806040526005805460ff1916905534801561001a57600080fd5b50604051620017033803806200170383398101604081905261003b916100c4565b61004b610046610070565b610074565b600180546001600160a01b0319166001600160a01b03929092169190911790556100f2565b3390565b600080546001600160a01b038381166001600160a01b0319831681178455604051919092169283917f8be0079c531659141344cd1fd0a4f28419497f9722a3daafe3b4186f6b6457e09190a35050565b6000602082840312156100d5578081fd5b81516001600160a01b03811681146100eb578182fd5b9392505050565b61160180620001026000396000f3fe608060405234801561001057600080fd5b50600436106100625760003560e01c8063715018a6146100675780638512e5a5146100715780638da5cb5b14610084578063d65ab5f2146100a2578063d93705a5146100aa578063f2fde38b146100bd575b600080fd5b61006f6100d0565b005b61006f61007f3660046112fc565b6100e4565b61008c61054f565b6040516100999190611345565b60405180910390f35b61006f61055e565b61006f6100b83660046112cc565b6105be565b61006f6100cb366004611197565b6110ca565b6100d8611104565b6100e26000611143565b565b6100ec611104565b600160055460ff16600281111561011357634e487b7160e01b600052602160045260246000fd5b146101395760405162461bcd60e51b815260040161013090611406565b60405180910390fd5b600354604051632f745c5960e01b81526001600160a01b03808516921690636352211e908290632f745c59906101759088908b9060040161137d565b60206040518083038186803b15801561018d57600080fd5b505afa1580156101a1573d6000803e3d6000fd5b505050506040513d601f19601f820116820180604052508101906101c591906112e4565b6040518263ffffffff1660e01b81526004016101e191906114f9565b60206040518083038186803b1580156101f957600080fd5b505afa15801561020d573d6000803e3d6000fd5b505050506040513d601f19601f8201168201806040525081019061023191906111ba565b6001600160a01b0316146102575760405162461bcd60e51b81526004016101309061149a565b600354604051632f745c5960e01b81526001600160a01b03808416921690636352211e908290632f745c59906102939087908a9060040161137d565b60206040518083038186803b1580156102ab57600080fd5b505afa1580156102bf573d6000803e3d6000fd5b505050506040513d601f19601f820116820180604052508101906102e391906112e4565b6040518263ffffffff1660e01b81526004016102ff91906114f9565b60206040518083038186803b15801561031757600080fd5b505afa15801561032b573d6000803e3d6000fd5b505050506040513d601f19601f8201168201806040525081019061034f91906111ba565b6001600160a01b0316146103755760405162461bcd60e51b81526004016101309061149a565b806001600160a01b0316826001600160a01b031614156103a75760405162461bcd60e51b815260040161013090611433565b6040805160c081018252600480548252602082018781528284018781526001600160a01b038088166060860190815287821660808701908152600060a08801818152600280546001810182559252975160059091027f405787fa12a823e0f2b7631cc41b3ba8828b3321ca811111fa75cd3aa3bb5ace81019190915594517f405787fa12a823e0f2b7631cc41b3ba8828b3321ca811111fa75cd3aa3bb5acf86015592517f405787fa12a823e0f2b7631cc41b3ba8828b3321ca811111fa75cd3aa3bb5ad0850155517f405787fa12a823e0f2b7631cc41b3ba8828b3321ca811111fa75cd3aa3bb5ad1840180549183166001600160a01b031992831617905591517f405787fa12a823e0f2b7631cc41b3ba8828b3321ca811111fa75cd3aa3bb5ad2909301805495511515600160a01b0260ff60a01b1994909216959092169490941791909116929092179091555490517f4103c7be7781529b6444f0a8aea70da67bff19969b4b58f1100057ab8b5b08179161052c918790879087908790611519565b60405180910390a16004805490600061054483611579565b919050555050505050565b6000546001600160a01b031690565b610566611104565b600060055460ff16600281111561058d57634e487b7160e01b600052602160045260246000fd5b146105aa5760405162461bcd60e51b8152600401610130906113dc565b6005805460ff191660011790556000600455565b600160055460ff1660028111156105e557634e487b7160e01b600052602160045260246000fd5b146106025760405162461bcd60e51b815260040161013090611406565b6002818154811061062357634e487b7160e01b600052603260045260246000fd5b6000918252602090912060059091020160040154600160a01b900460ff161561065e5760405162461bcd60e51b815260040161013090611463565b60006002828154811061068157634e487b7160e01b600052603260045260246000fd5b906000526020600020906005020160010154600160009054906101000a90046001600160a01b03166001600160a01b03166370a08231600285815481106106d857634e487b7160e01b600052603260045260246000fd5b60009182526020909120600360059092020101546040516001600160e01b031960e084901b168152610716916001600160a01b031690600401611345565b60206040518083038186803b15801561072e57600080fd5b505afa158015610742573d6000803e3d6000fd5b505050506040513d601f19601f8201168201806040525081019061076691906112e4565b116107725760006108ec565b600154600280546001600160a01b039092169163aea9fbde918391632f745c599190879081106107b257634e487b7160e01b600052603260045260246000fd5b906000526020600020906005020160030160009054906101000a90046001600160a01b0316600287815481106107f857634e487b7160e01b600052603260045260246000fd5b9060005260206000209060050201600101546040518363ffffffff1660e01b815260040161082792919061137d565b60206040518083038186803b15801561083f57600080fd5b505afa158015610853573d6000803e3d6000fd5b505050506040513d601f19601f8201168201806040525081019061087791906112e4565b6040518263ffffffff1660e01b815260040161089391906114f9565b60006040518083038186803b1580156108ab57600080fd5b505afa1580156108bf573d6000803e3d6000fd5b505050506040513d6000823e601f3d908101601f191682016040526108e791908101906111d6565b602001515b905060006002838154811061091157634e487b7160e01b600052603260045260246000fd5b906000526020600020906005020160020154600160009054906101000a90046001600160a01b03166001600160a01b03166370a082316002868154811061096857634e487b7160e01b600052603260045260246000fd5b6000918252602090912060046005909202018101546040516001600160e01b031960e085901b1681526109a7926001600160a01b039092169101611345565b60206040518083038186803b1580156109bf57600080fd5b505afa1580156109d3573d6000803e3d6000fd5b505050506040513d601f19601f820116820180604052508101906109f791906112e4565b11610a03576000610b7d565b600154600280546001600160a01b039092169163aea9fbde918391632f745c59919088908110610a4357634e487b7160e01b600052603260045260246000fd5b906000526020600020906005020160040160009054906101000a90046001600160a01b031660028881548110610a8957634e487b7160e01b600052603260045260246000fd5b9060005260206000209060050201600201546040518363ffffffff1660e01b8152600401610ab892919061137d565b60206040518083038186803b158015610ad057600080fd5b505afa158015610ae4573d6000803e3d6000fd5b505050506040513d601f19601f82011682018060405250810190610b0891906112e4565b6040518263ffffffff1660e01b8152600401610b2491906114f9565b60006040518083038186803b158015610b3c57600080fd5b505afa158015610b50573d6000803e3d6000fd5b505050506040513d6000823e601f3d908101601f19168201604052610b7891908101906111d6565b602001515b905080821115610de657600354600280546001600160a01b03909216916323b872dd919086908110610bbf57634e487b7160e01b600052603260045260246000fd5b906000526020600020906005020160040160009054906101000a90046001600160a01b031660028681548110610c0557634e487b7160e01b600052603260045260246000fd5b6000918252602090912060036005909202018101549054600280546001600160a01b03938416939290921691632f745c5991908a908110610c5657634e487b7160e01b600052603260045260246000fd5b906000526020600020906005020160040160009054906101000a90046001600160a01b031660028a81548110610c9c57634e487b7160e01b600052603260045260246000fd5b9060005260206000209060050201600201546040518363ffffffff1660e01b8152600401610ccb92919061137d565b60206040518083038186803b158015610ce357600080fd5b505afa158015610cf7573d6000803e3d6000fd5b505050506040513d601f19601f82011682018060405250810190610d1b91906112e4565b6040518463ffffffff1660e01b8152600401610d3993929190611359565b600060405180830381600087803b158015610d5357600080fd5b505af1158015610d67573d6000803e3d6000fd5b505050507fe06d6ffff0b790827866bc2bc7fd5ee3c9247ef1dbab18cc722c7c528cb946348360028581548110610dae57634e487b7160e01b600052603260045260246000fd5b6000918252602090912060036005909202010154604051610dd992916001600160a01b031690611502565b60405180910390a161107a565b8082101561103f57600354600280546001600160a01b03909216916323b872dd919086908110610e2657634e487b7160e01b600052603260045260246000fd5b906000526020600020906005020160030160009054906101000a90046001600160a01b031660028681548110610e6c57634e487b7160e01b600052603260045260246000fd5b6000918252602090912060059091020160040154600354600280546001600160a01b039384169390921691632f745c5991908a908110610ebc57634e487b7160e01b600052603260045260246000fd5b906000526020600020906005020160030160009054906101000a90046001600160a01b031660028a81548110610f0257634e487b7160e01b600052603260045260246000fd5b9060005260206000209060050201600101546040518363ffffffff1660e01b8152600401610f3192919061137d565b60206040518083038186803b158015610f4957600080fd5b505afa158015610f5d573d6000803e3d6000fd5b505050506040513d601f19601f82011682018060405250810190610f8191906112e4565b6040518463ffffffff1660e01b8152600401610f9f93929190611359565b600060405180830381600087803b158015610fb957600080fd5b505af1158015610fcd573d6000803e3d6000fd5b505050507fe06d6ffff0b790827866bc2bc7fd5ee3c9247ef1dbab18cc722c7c528cb94634836002858154811061101457634e487b7160e01b600052603260045260246000fd5b6000918252602090912060046005909202010154604051610dd992916001600160a01b031690611502565b7fe06d6ffff0b790827866bc2bc7fd5ee3c9247ef1dbab18cc722c7c528cb94634836000604051611071929190611502565b60405180910390a15b60016002848154811061109d57634e487b7160e01b600052603260045260246000fd5b906000526020600020906005020160040160146101000a81548160ff021916908315150217905550505050565b6110d2611104565b6001600160a01b0381166110f85760405162461bcd60e51b815260040161013090611396565b61110181611143565b50565b61110c611193565b6001600160a01b031661111d61054f565b6001600160a01b0316146100e25760405162461bcd60e51b8152600401610130906114c4565b600080546001600160a01b038381166001600160a01b0319831681178455604051919092169283917f8be0079c531659141344cd1fd0a4f28419497f9722a3daafe3b4186f6b6457e09190a35050565b3390565b6000602082840312156111a8578081fd5b81356111b3816115b6565b9392505050565b6000602082840312156111cb578081fd5b81516111b3816115b6565b600060208083850312156111e8578182fd5b825167ffffffffffffffff808211156111ff578384fd5b9084019060808287031215611212578384fd5b61121c6080611548565b82518281111561122a578586fd5b8301601f8101881361123a578586fd5b80518381111561124c5761124c6115a0565b61125e601f8201601f19168701611548565b93508084528886828401011115611273578687fd5b865b81811015611290578281018701518582018801528601611275565b818111156112a057878783870101525b505050908152818301519281019290925260408082015190830152606090810151908201529392505050565b6000602082840312156112dd578081fd5b5035919050565b6000602082840312156112f5578081fd5b5051919050565b60008060008060808587031215611311578283fd5b8435935060208501359250604085013561132a816115b6565b9150606085013561133a816115b6565b939692955090935050565b6001600160a01b0391909116815260200190565b6001600160a01b039384168152919092166020820152604081019190915260600190565b6001600160a01b03929092168252602082015260400190565b60208082526026908201527f4f776e61626c653a206e6577206f776e657220697320746865207a65726f206160408201526564647265737360d01b606082015260800190565b60208082526010908201526f47616d65206973206e6f742069646c6560801b604082015260600190565b60208082526013908201527247616d65206973206e6f7420706c6179696e6760681b604082015260600190565b60208082526016908201527521b0b73737ba103130ba3a3632903cb7bab939b2b63360511b604082015260600190565b6020808252601a908201527f426174746c6520697320616c7265616479207265736f6c766564000000000000604082015260600190565b60208082526010908201526f24b73b30b634b2103bb932b9ba3632b960811b604082015260600190565b6020808252818101527f4f776e61626c653a2063616c6c6572206973206e6f7420746865206f776e6572604082015260600190565b90815260200190565b9182526001600160a01b0316602082015260400190565b948552602085019390935260408401919091526001600160a01b03908116606084015216608082015260a00190565b604051601f8201601f1916810167ffffffffffffffff81118282101715611571576115716115a0565b604052919050565b600060001982141561159957634e487b7160e01b81526011600452602481fd5b5060010190565b634e487b7160e01b600052604160045260246000fd5b6001600160a01b038116811461110157600080fdfea26469706673582212209a8e5bd20fcb30f0dd0cb0e9b8c3c1ad600632db3b9870c144c250bcc44664b464736f6c63430008010033",
  "immutableReferences": {},
  "source": "// SPDX-License-Identifier: MIT\npragma solidity ^0.8.0;\nimport \"./wrestlers.sol\";\nimport \"@openzeppelin/contracts/token/ERC721/extensions/IERC721Enumerable.sol\";\nimport \"@openzeppelin/contracts/access/Ownable.sol\";\n\ncontract Battles is Ownable {\n    enum GameState { IDLE, PLAYING, FINISHED }\n    Wrestlers private wrestlersContracts;\n    \n    struct Battle {\n        uint256 battleId;\n        uint256 wrestler1Index;\n        uint256 wrestler2Index;\n        address player1;\n        address player2;\n        bool resolved;\n    }\n    \n    Battle[] private battles;\n    IERC721Enumerable private wrestlersContract;\n    uint256 private battleIndex;\n    GameState private state = GameState.IDLE;\n    \n    event NewBattle(uint256 battleIndex, uint256 wrestler1Index, uint256 wrestler2Index, address player1, address player2);\n    event BattleResolved(uint256 battleIndex, address winner);\n    \n    constructor(address _wrestlersContractAddress) {\n        wrestlersContracts = Wrestlers(_wrestlersContractAddress);\n       // wrestlersContract = IERC721Enumerable(_wrestlersContractAddress);\n    }\n    \n    function startGame() external onlyOwner {\n        require(state == GameState.IDLE, \"Game is not idle\");\n        state = GameState.PLAYING;\n        battleIndex = 0;\n    }\n    \n    function createBattle(uint256 wrestler1Index, uint256 wrestler2Index, address player1, address player2) external onlyOwner {\n        require(state == GameState.PLAYING, \"Game is not playing\");\n        require(wrestlersContract.ownerOf(wrestlersContract.tokenOfOwnerByIndex(player1, wrestler1Index)) == player1, \"Invalid wrestler\");\n        require(wrestlersContract.ownerOf(wrestlersContract.tokenOfOwnerByIndex(player2, wrestler2Index)) == player2, \"Invalid wrestler\");\n        require(player1 != player2, \"Cannot battle yourself\");\n        battles.push(Battle(battleIndex, wrestler1Index, wrestler2Index, player1, player2, false));\n        emit NewBattle(battleIndex, wrestler1Index, wrestler2Index, player1, player2);\n        battleIndex++;\n    }\n    \n    function resolveBattle(uint256 _battleIndex) external {\n        require(state == GameState.PLAYING, \"Game is not playing\");\n        require(battles[_battleIndex].resolved == false, \"Battle is already resolved\");\n        uint256 wrestler1Strength = wrestlersContracts.balanceOf(battles[_battleIndex].player1) > battles[_battleIndex].wrestler1Index ? wrestlersContracts.getWrestler(wrestlersContracts.tokenOfOwnerByIndex(battles[_battleIndex].player1, battles[_battleIndex].wrestler1Index)).strength : 0;\n        uint256 wrestler2Strength = wrestlersContracts.balanceOf(battles[_battleIndex].player2) > battles[_battleIndex].wrestler2Index ? wrestlersContracts.getWrestler(wrestlersContracts.tokenOfOwnerByIndex(battles[_battleIndex].player2, battles[_battleIndex].wrestler2Index)).strength : 0;\n        if (wrestler1Strength > wrestler2Strength) {\n            // Player 1 wins the battle\n            // Transfer the wrestler from player 2 to player 1\n            wrestlersContract.transferFrom(battles[_battleIndex].player2, battles[_battleIndex].player1, wrestlersContract.tokenOfOwnerByIndex(battles[_battleIndex].player2, battles[_battleIndex].wrestler2Index));\n            emit BattleResolved(_battleIndex, battles[_battleIndex].player1);\n        } else if (wrestler1Strength < wrestler2Strength) {\n            // Player 2 wins the battle\n            // Transfer the wrestler from player 1 to player 2\n            wrestlersContract.transferFrom(battles[_battleIndex].player1, battles[_battleIndex].player2, wrestlersContract.tokenOfOwnerByIndex(battles[_battleIndex].player1, battles[_battleIndex].wrestler1Index));\n            emit BattleResolved(_battleIndex, battles[_battleIndex].player2);\n        } else {\n            // It's a tie, just emit the event without transferring the wrestler\n            emit BattleResolved(_battleIndex, address(0));\n        }\n\n        // Mark the battle as resolved\n        battles[_battleIndex].resolved = true;\n    }\n}",
  "sourcePath": "/Users/kunalkapoor/Desktop/finalassignment/contracts/battles.sol",
  "compiler": {
    "name": "solc",
    "version": "0.8.1+commit.df193b15.Emscripten.clang"
  },
  "schemaVersion": "3.4.13",
  "updatedAt": "2023-03-30T14:39:23.259Z",
  "devdoc": {
    "kind": "dev",
    "methods": {
      "owner()": {
        "details": "Returns the address of the current owner."
      },
      "renounceOwnership()": {
        "details": "Leaves the contract without owner. It will not be possible to call `onlyOwner` functions anymore. Can only be called by the current owner. NOTE: Renouncing ownership will leave the contract without an owner, thereby removing any functionality that is only available to the owner."
      },
      "transferOwnership(address)": {
        "details": "Transfers ownership of the contract to a new account (`newOwner`). Can only be called by the current owner."
      }
    },
    "version": 1
  },
  "userdoc": {
    "kind": "user",
    "methods": {},
    "version": 1
  }
}