{
  "contractName": "Wrestlers",
  "abi": [
    {
      "inputs": [],
      "stateMutability": "nonpayable",
      "type": "constructor"
    },
    {
      "anonymous": false,
      "inputs": [
        {
          "indexed": true,
          "internalType": "address",
          "name": "owner",
          "type": "address"
        },
        {
          "indexed": true,
          "internalType": "address",
          "name": "approved",
          "type": "address"
        },
        {
          "indexed": true,
          "internalType": "uint256",
          "name": "tokenId",
          "type": "uint256"
        }
      ],
      "name": "Approval",
      "type": "event"
    },
    {
      "anonymous": false,
      "inputs": [
        {
          "indexed": true,
          "internalType": "address",
          "name": "owner",
          "type": "address"
        },
        {
          "indexed": true,
          "internalType": "address",
          "name": "operator",
          "type": "address"
        },
        {
          "indexed": false,
          "internalType": "bool",
          "name": "approved",
          "type": "bool"
        }
      ],
      "name": "ApprovalForAll",
      "type": "event"
    },
    {
      "anonymous": false,
      "inputs": [
        {
          "indexed": true,
          "internalType": "address",
          "name": "previousOwner",
          "type": "address"
        },
        {
          "indexed": true,
          "internalType": "address",
          "name": "newOwner",
          "type": "address"
        }
      ],
      "name": "OwnershipTransferred",
      "type": "event"
    },
    {
      "anonymous": false,
      "inputs": [
        {
          "indexed": true,
          "internalType": "address",
          "name": "from",
          "type": "address"
        },
        {
          "indexed": true,
          "internalType": "address",
          "name": "to",
          "type": "address"
        },
        {
          "indexed": true,
          "internalType": "uint256",
          "name": "tokenId",
          "type": "uint256"
        }
      ],
      "name": "Transfer",
      "type": "event"
    },
    {
      "inputs": [
        {
          "internalType": "address",
          "name": "to",
          "type": "address"
        },
        {
          "internalType": "uint256",
          "name": "tokenId",
          "type": "uint256"
        }
      ],
      "name": "approve",
      "outputs": [],
      "stateMutability": "nonpayable",
      "type": "function"
    },
    {
      "inputs": [
        {
          "internalType": "address",
          "name": "owner",
          "type": "address"
        }
      ],
      "name": "balanceOf",
      "outputs": [
        {
          "internalType": "uint256",
          "name": "",
          "type": "uint256"
        }
      ],
      "stateMutability": "view",
      "type": "function"
    },
    {
      "inputs": [
        {
          "internalType": "uint256",
          "name": "tokenId",
          "type": "uint256"
        }
      ],
      "name": "getApproved",
      "outputs": [
        {
          "internalType": "address",
          "name": "",
          "type": "address"
        }
      ],
      "stateMutability": "view",
      "type": "function"
    },
    {
      "inputs": [
        {
          "internalType": "address",
          "name": "owner",
          "type": "address"
        },
        {
          "internalType": "address",
          "name": "operator",
          "type": "address"
        }
      ],
      "name": "isApprovedForAll",
      "outputs": [
        {
          "internalType": "bool",
          "name": "",
          "type": "bool"
        }
      ],
      "stateMutability": "view",
      "type": "function"
    },
    {
      "inputs": [],
      "name": "name",
      "outputs": [
        {
          "internalType": "string",
          "name": "",
          "type": "string"
        }
      ],
      "stateMutability": "view",
      "type": "function"
    },
    {
      "inputs": [],
      "name": "owner",
      "outputs": [
        {
          "internalType": "address",
          "name": "",
          "type": "address"
        }
      ],
      "stateMutability": "view",
      "type": "function"
    },
    {
      "inputs": [
        {
          "internalType": "uint256",
          "name": "tokenId",
          "type": "uint256"
        }
      ],
      "name": "ownerOf",
      "outputs": [
        {
          "internalType": "address",
          "name": "",
          "type": "address"
        }
      ],
      "stateMutability": "view",
      "type": "function"
    },
    {
      "inputs": [],
      "name": "renounceOwnership",
      "outputs": [],
      "stateMutability": "nonpayable",
      "type": "function"
    },
    {
      "inputs": [
        {
          "internalType": "address",
          "name": "from",
          "type": "address"
        },
        {
          "internalType": "address",
          "name": "to",
          "type": "address"
        },
        {
          "internalType": "uint256",
          "name": "tokenId",
          "type": "uint256"
        }
      ],
      "name": "safeTransferFrom",
      "outputs": [],
      "stateMutability": "nonpayable",
      "type": "function"
    },
    {
      "inputs": [
        {
          "internalType": "address",
          "name": "from",
          "type": "address"
        },
        {
          "internalType": "address",
          "name": "to",
          "type": "address"
        },
        {
          "internalType": "uint256",
          "name": "tokenId",
          "type": "uint256"
        },
        {
          "internalType": "bytes",
          "name": "data",
          "type": "bytes"
        }
      ],
      "name": "safeTransferFrom",
      "outputs": [],
      "stateMutability": "nonpayable",
      "type": "function"
    },
    {
      "inputs": [
        {
          "internalType": "address",
          "name": "operator",
          "type": "address"
        },
        {
          "internalType": "bool",
          "name": "approved",
          "type": "bool"
        }
      ],
      "name": "setApprovalForAll",
      "outputs": [],
      "stateMutability": "nonpayable",
      "type": "function"
    },
    {
      "inputs": [
        {
          "internalType": "bytes4",
          "name": "interfaceId",
          "type": "bytes4"
        }
      ],
      "name": "supportsInterface",
      "outputs": [
        {
          "internalType": "bool",
          "name": "",
          "type": "bool"
        }
      ],
      "stateMutability": "view",
      "type": "function"
    },
    {
      "inputs": [],
      "name": "symbol",
      "outputs": [
        {
          "internalType": "string",
          "name": "",
          "type": "string"
        }
      ],
      "stateMutability": "view",
      "type": "function"
    },
    {
      "inputs": [
        {
          "internalType": "uint256",
          "name": "tokenId",
          "type": "uint256"
        }
      ],
      "name": "tokenURI",
      "outputs": [
        {
          "internalType": "string",
          "name": "",
          "type": "string"
        }
      ],
      "stateMutability": "view",
      "type": "function"
    },
    {
      "inputs": [
        {
          "internalType": "address",
          "name": "from",
          "type": "address"
        },
        {
          "internalType": "address",
          "name": "to",
          "type": "address"
        },
        {
          "internalType": "uint256",
          "name": "tokenId",
          "type": "uint256"
        }
      ],
      "name": "transferFrom",
      "outputs": [],
      "stateMutability": "nonpayable",
      "type": "function"
    },
    {
      "inputs": [
        {
          "internalType": "address",
          "name": "newOwner",
          "type": "address"
        }
      ],
      "name": "transferOwnership",
      "outputs": [],
      "stateMutability": "nonpayable",
      "type": "function"
    },
    {
      "inputs": [
        {
          "internalType": "string",
          "name": "name",
          "type": "string"
        },
        {
          "internalType": "uint256",
          "name": "strength",
          "type": "uint256"
        }
      ],
      "name": "mint",
      "outputs": [],
      "stateMutability": "nonpayable",
      "type": "function"
    },
    {
      "inputs": [
        {
          "internalType": "uint256",
          "name": "tokenId",
          "type": "uint256"
        }
      ],
      "name": "getWrestler",
      "outputs": [
        {
          "components": [
            {
              "internalType": "string",
              "name": "name",
              "type": "string"
            },
            {
              "internalType": "uint256",
              "name": "strength",
              "type": "uint256"
            },
            {
              "internalType": "uint256",
              "name": "wins",
              "type": "uint256"
            },
            {
              "internalType": "uint256",
              "name": "losses",
              "type": "uint256"
            }
          ],
          "internalType": "struct Wrestlers.Wrestler",
          "name": "",
          "type": "tuple"
        }
      ],
      "stateMutability": "view",
      "type": "function"
    },
    {
      "inputs": [
        {
          "internalType": "uint256",
          "name": "tokenId",
          "type": "uint256"
        },
        {
          "internalType": "uint256",
          "name": "newStrength",
          "type": "uint256"
        }
      ],
      "name": "updateStrength",
      "outputs": [],
      "stateMutability": "nonpayable",
      "type": "function"
    },
    {
      "inputs": [
        {
          "internalType": "uint256",
          "name": "tokenId",
          "type": "uint256"
        }
      ],
      "name": "recordWin",
      "outputs": [],
      "stateMutability": "nonpayable",
      "type": "function"
    },
    {
      "inputs": [
        {
          "internalType": "uint256",
          "name": "tokenId",
          "type": "uint256"
        }
      ],
      "name": "recordLoss",
      "outputs": [],
      "stateMutability": "nonpayable",
      "type": "function"
    },
    {
      "inputs": [],
      "name": "totalSupply",
      "outputs": [
        {
          "internalType": "uint256",
          "name": "",
          "type": "uint256"
        }
      ],
      "stateMutability": "view",
      "type": "function"
    },
    {
      "inputs": [
        {
          "internalType": "uint256",
          "name": "index",
          "type": "uint256"
        }
      ],
      "name": "tokenByIndex",
      "outputs": [
        {
          "internalType": "uint256",
          "name": "",
          "type": "uint256"
        }
      ],
      "stateMutability": "view",
      "type": "function"
    },
    {
      "inputs": [
        {
          "internalType": "address",
          "name": "owner",
          "type": "address"
        },
        {
          "internalType": "uint256",
          "name": "index",
          "type": "uint256"
        }
      ],
      "name": "tokenOfOwnerByIndex",
      "outputs": [
        {
          "internalType": "uint256",
          "name": "",
          "type": "uint256"
        }
      ],
      "stateMutability": "view",
      "type": "function"
    },
    {
      "inputs": [
        {
          "internalType": "address",
          "name": "owner",
          "type": "address"
        },
        {
          "internalType": "uint256",
          "name": "tokenId",
          "type": "uint256"
        }
      ],
      "name": "belongsTo",
      "outputs": [
        {
          "internalType": "bool",
          "name": "",
          "type": "bool"
        }
      ],
      "stateMutability": "view",
      "type": "function"
    }
  ],
  "bytecode": "0x60806040523480156200001157600080fd5b50604080518082018252600981526857726573746c65727360b81b60208083019182528351808501909452600384526257525360e81b9084015281519192916200005e91600091620000ed565b50805162000074906001906020840190620000ed565b505050620000916200008b6200009760201b60201c565b6200009b565b620001d0565b3390565b600680546001600160a01b038381166001600160a01b0319831681179093556040519116919082907f8be0079c531659141344cd1fd0a4f28419497f9722a3daafe3b4186f6b6457e090600090a35050565b828054620000fb9062000193565b90600052602060002090601f0160209004810192826200011f57600085556200016a565b82601f106200013a57805160ff19168380011785556200016a565b828001600101855582156200016a579182015b828111156200016a5782518255916020019190600101906200014d565b50620001789291506200017c565b5090565b5b808211156200017857600081556001016200017d565b600281046001821680620001a857607f821691505b60208210811415620001ca57634e487b7160e01b600052602260045260246000fd5b50919050565b611b0480620001e06000396000f3fe608060405234801561001057600080fd5b50600436106101735760003560e01c80636352211e116100de578063a22cb46511610097578063c87b56dd11610071578063c87b56dd1461031c578063da0225db1461032f578063e985e9c514610342578063f2fde38b1461035557610173565b8063a22cb465146102d6578063aea9fbde146102e9578063b88d4fde1461030957610173565b80636352211e1461028557806370a0823114610298578063715018a6146102ab5780638da5cb5b146102b357806395d89b41146102bb5780639e6611a5146102c357610173565b80631f8fc9fa116101305780631f8fc9fa1461021357806323b872dd146102265780632f745c591461023957806342842e0e1461024c5780634f6ccce71461025f5780636022743e1461027257610173565b806301ffc9a714610178578063056b01ce146101a157806306fdde03146101b6578063081812fc146101cb578063095ea7b3146101eb57806318160ddd146101fe575b600080fd5b61018b61018636600461146c565b610368565b60405161019891906115df565b60405180910390f35b6101b46101af3660046114a4565b6103b0565b005b6101be610444565b60405161019891906115ea565b6101de6101d93660046114fa565b6104d6565b604051610198919061158e565b6101b46101f9366004611443565b6104fd565b610206610599565b6040516101989190611a0b565b6101b4610221366004611512565b61059f565b6101b4610234366004611355565b6105e1565b610206610247366004611443565b610619565b6101b461025a366004611355565b610653565b61020661026d3660046114fa565b61066e565b6101b46102803660046114fa565b610695565b6101de6102933660046114fa565b6106e7565b6102066102a6366004611309565b61071b565b6101b461075f565b6101de610773565b6101be610782565b6101b46102d13660046114fa565b610791565b6101b46102e4366004611409565b6107db565b6102fc6102f73660046114fa565b6107f1565b60405161019891906119c5565b6101b4610317366004611390565b6108ed565b6101be61032a3660046114fa565b61092c565b61018b61033d366004611443565b610992565b61018b610350366004611323565b6109b8565b6101b4610363366004611309565b6109e6565b60006001600160e01b031982166380ac58cd60e01b148061039957506001600160e01b03198216635b5e139f60e01b145b806103a857506103a882610a20565b90505b919050565b6103b8610a39565b600854604080516080810182528481526020808201859052600082840181905260608301819052848152600782529290922081518051929391926103ff92849201906111bf565b5060208201516001820155604082015160028201556060909101516003909101556008805490600061043083611a7b565b919050555061043f3382610a78565b505050565b60606000805461045390611a40565b80601f016020809104026020016040519081016040528092919081815260200182805461047f90611a40565b80156104cc5780601f106104a1576101008083540402835291602001916104cc565b820191906000526020600020905b8154815290600101906020018083116104af57829003601f168201915b5050505050905090565b60006104e182610b6d565b506000908152600460205260409020546001600160a01b031690565b6000610508826106e7565b9050806001600160a01b0316836001600160a01b031614156105455760405162461bcd60e51b815260040161053c906118fa565b60405180910390fd5b806001600160a01b0316610557610b92565b6001600160a01b03161480610573575061057381610350610b92565b61058f5760405162461bcd60e51b815260040161053c9061193b565b61043f8383610b96565b60085490565b6105a7610a39565b6105b082610c04565b6105cc5760405162461bcd60e51b815260040161053c906117d9565b60009182526007602052604090912060010155565b6105f26105ec610b92565b82610c21565b61060e5760405162461bcd60e51b815260040161053c906115fd565b61043f838383610c80565b60006106248361071b565b82106106425760405162461bcd60e51b815260040161053c90611998565b61064c8383610619565b9392505050565b61043f838383604051806020016040528060008152506108ed565b600060085482106106915760405162461bcd60e51b815260040161053c90611998565b5090565b61069d610a39565b6106a681610c04565b6106c25760405162461bcd60e51b815260040161053c906117d9565b60008181526007602052604081206003018054916106df83611a7b565b919050555050565b6000806106f383610dbd565b90506001600160a01b0381166103a85760405162461bcd60e51b815260040161053c906118c3565b60006001600160a01b0382166107435760405162461bcd60e51b815260040161053c90611810565b506001600160a01b031660009081526003602052604090205490565b610767610a39565b6107716000610dd8565b565b6006546001600160a01b031690565b60606001805461045390611a40565b610799610a39565b6107a281610c04565b6107be5760405162461bcd60e51b815260040161053c906117d9565b60008181526007602052604081206002018054916106df83611a7b565b6107ed6107e6610b92565b8383610e2a565b5050565b6107f961123f565b61080282610c04565b61081e5760405162461bcd60e51b815260040161053c906117d9565b6000828152600760205260409081902081516080810190925280548290829061084690611a40565b80601f016020809104026020016040519081016040528092919081815260200182805461087290611a40565b80156108bf5780601f10610894576101008083540402835291602001916108bf565b820191906000526020600020905b8154815290600101906020018083116108a257829003601f168201915b5050505050815260200160018201548152602001600282015481526020016003820154815250509050919050565b6108fe6108f8610b92565b83610c21565b61091a5760405162461bcd60e51b815260040161053c906115fd565b61092684848484610ecd565b50505050565b606061093782610b6d565b6000610941610f00565b90506000815111610961576040518060200160405280600081525061064c565b8061096b84610f12565b60405160200161097c92919061155f565b6040516020818303038152906040529392505050565b6000826001600160a01b03166109a7836106e7565b6001600160a01b0316149392505050565b6001600160a01b03918216600090815260056020908152604080832093909416825291909152205460ff1690565b6109ee610a39565b6001600160a01b038116610a145760405162461bcd60e51b815260040161053c9061169c565b610a1d81610dd8565b50565b6001600160e01b031981166301ffc9a760e01b14919050565b610a41610b92565b6001600160a01b0316610a52610773565b6001600160a01b0316146107715760405162461bcd60e51b815260040161053c9061188e565b6001600160a01b038216610a9e5760405162461bcd60e51b815260040161053c90611859565b610aa781610c04565b15610ac45760405162461bcd60e51b815260040161053c90611727565b610ad2600083836001610926565b610adb81610c04565b15610af85760405162461bcd60e51b815260040161053c90611727565b6001600160a01b038216600081815260036020908152604080832080546001019055848352600290915280822080546001600160a01b0319168417905551839291907fddf252ad1be2c89b69c2b068fc378daa952ba7f163c4a11628f55a4df523b3ef908290a46107ed600083836001610926565b610b7681610c04565b610a1d5760405162461bcd60e51b815260040161053c906118c3565b3390565b600081815260046020526040902080546001600160a01b0319166001600160a01b0384169081179091558190610bcb826106e7565b6001600160a01b03167f8c5be1e5ebec7d5bd14f71427d1e84f3dd0314c0f7b2291e5b200ac8c7c3b92560405160405180910390a45050565b600080610c1083610dbd565b6001600160a01b0316141592915050565b600080610c2d836106e7565b9050806001600160a01b0316846001600160a01b03161480610c545750610c5481856109b8565b80610c785750836001600160a01b0316610c6d846104d6565b6001600160a01b0316145b949350505050565b826001600160a01b0316610c93826106e7565b6001600160a01b031614610cb95760405162461bcd60e51b815260040161053c906116e2565b6001600160a01b038216610cdf5760405162461bcd60e51b815260040161053c9061175e565b610cec8383836001610926565b826001600160a01b0316610cff826106e7565b6001600160a01b031614610d255760405162461bcd60e51b815260040161053c906116e2565b600081815260046020908152604080832080546001600160a01b03199081169091556001600160a01b0387811680865260038552838620805460001901905590871680865283862080546001019055868652600290945282852080549092168417909155905184937fddf252ad1be2c89b69c2b068fc378daa952ba7f163c4a11628f55a4df523b3ef91a461043f8383836001610926565b6000908152600260205260409020546001600160a01b031690565b600680546001600160a01b038381166001600160a01b0319831681179093556040519116919082907f8be0079c531659141344cd1fd0a4f28419497f9722a3daafe3b4186f6b6457e090600090a35050565b816001600160a01b0316836001600160a01b03161415610e5c5760405162461bcd60e51b815260040161053c906117a2565b6001600160a01b0383811660008181526005602090815260408083209487168084529490915290819020805460ff1916851515179055517f17307eab39ab6107e8899845ad3d59bd9653f200f220920489ca2b5937696c3190610ec09085906115df565b60405180910390a3505050565b610ed8848484610c80565b610ee484848484610fbd565b6109265760405162461bcd60e51b815260040161053c9061164a565b60408051602081019091526000815290565b60606000610f1f836110d8565b600101905060008167ffffffffffffffff811115610f4d57634e487b7160e01b600052604160045260246000fd5b6040519080825280601f01601f191660200182016040528015610f77576020820181803683370190505b5090508181016020015b600019016f181899199a1a9b1b9c1cb0b131b232b360811b600a86061a8153600a8504945084610fb057610fb5565b610f81565b509392505050565b6000610fd1846001600160a01b03166111b0565b156110cd57836001600160a01b031663150b7a02610fed610b92565b8786866040518563ffffffff1660e01b815260040161100f94939291906115a2565b602060405180830381600087803b15801561102957600080fd5b505af1925050508015611059575060408051601f3d908101601f1916820190925261105691810190611488565b60015b6110b3573d808015611087576040519150601f19603f3d011682016040523d82523d6000602084013e61108c565b606091505b5080516110ab5760405162461bcd60e51b815260040161053c9061164a565b805181602001fd5b6001600160e01b031916630a85bd0160e11b149050610c78565b506001949350505050565b60008072184f03e93ff9f4daa797ed6e38ed64bf6a1f0160401b83106111175772184f03e93ff9f4daa797ed6e38ed64bf6a1f0160401b830492506040015b6d04ee2d6d415b85acef81000000008310611143576d04ee2d6d415b85acef8100000000830492506020015b662386f26fc10000831061116157662386f26fc10000830492506010015b6305f5e1008310611179576305f5e100830492506008015b612710831061118d57612710830492506004015b6064831061119f576064830492506002015b600a83106103a85760010192915050565b6001600160a01b03163b151590565b8280546111cb90611a40565b90600052602060002090601f0160209004810192826111ed5760008555611233565b82601f1061120657805160ff1916838001178555611233565b82800160010185558215611233579182015b82811115611233578251825591602001919060010190611218565b50610691929150611267565b6040518060800160405280606081526020016000815260200160008152602001600081525090565b5b808211156106915760008155600101611268565b600067ffffffffffffffff8084111561129757611297611aa2565b604051601f8501601f19908116603f011681019082821181831017156112bf576112bf611aa2565b816040528093508581528686860111156112d857600080fd5b858560208301376000602087830101525050509392505050565b80356001600160a01b03811681146103ab57600080fd5b60006020828403121561131a578081fd5b61064c826112f2565b60008060408385031215611335578081fd5b61133e836112f2565b915061134c602084016112f2565b90509250929050565b600080600060608486031215611369578081fd5b611372846112f2565b9250611380602085016112f2565b9150604084013590509250925092565b600080600080608085870312156113a5578081fd5b6113ae856112f2565b93506113bc602086016112f2565b925060408501359150606085013567ffffffffffffffff8111156113de578182fd5b8501601f810187136113ee578182fd5b6113fd8782356020840161127c565b91505092959194509250565b6000806040838503121561141b578182fd5b611424836112f2565b915060208301358015158114611438578182fd5b809150509250929050565b60008060408385031215611455578182fd5b61145e836112f2565b946020939093013593505050565b60006020828403121561147d578081fd5b813561064c81611ab8565b600060208284031215611499578081fd5b815161064c81611ab8565b600080604083850312156114b6578182fd5b823567ffffffffffffffff8111156114cc578283fd5b8301601f810185136114dc578283fd5b6114eb8582356020840161127c565b95602094909401359450505050565b60006020828403121561150b578081fd5b5035919050565b60008060408385031215611524578182fd5b50508035926020909101359150565b6000815180845261154b816020860160208601611a14565b601f01601f19169290920160200192915050565b60008351611571818460208801611a14565b835190830190611585818360208801611a14565b01949350505050565b6001600160a01b0391909116815260200190565b6001600160a01b03858116825284166020820152604081018390526080606082018190526000906115d590830184611533565b9695505050505050565b901515815260200190565b60006020825261064c6020830184611533565b6020808252602d908201527f4552433732313a2063616c6c6572206973206e6f7420746f6b656e206f776e6560408201526c1c881bdc88185c1c1c9bdd9959609a1b606082015260800190565b60208082526032908201527f4552433732313a207472616e7366657220746f206e6f6e20455243373231526560408201527131b2b4bb32b91034b6b83632b6b2b73a32b960711b606082015260800190565b60208082526026908201527f4f776e61626c653a206e6577206f776e657220697320746865207a65726f206160408201526564647265737360d01b606082015260800190565b60208082526025908201527f4552433732313a207472616e736665722066726f6d20696e636f72726563742060408201526437bbb732b960d91b606082015260800190565b6020808252601c908201527f4552433732313a20746f6b656e20616c7265616479206d696e74656400000000604082015260600190565b60208082526024908201527f4552433732313a207472616e7366657220746f20746865207a65726f206164646040820152637265737360e01b606082015260800190565b60208082526019908201527f4552433732313a20617070726f766520746f2063616c6c657200000000000000604082015260600190565b60208082526017908201527f57726573746c657220646f6573206e6f74206578697374000000000000000000604082015260600190565b60208082526029908201527f4552433732313a2061646472657373207a65726f206973206e6f7420612076616040820152683634b21037bbb732b960b91b606082015260800190565b6020808252818101527f4552433732313a206d696e7420746f20746865207a65726f2061646472657373604082015260600190565b6020808252818101527f4f776e61626c653a2063616c6c6572206973206e6f7420746865206f776e6572604082015260600190565b60208082526018908201527f4552433732313a20696e76616c696420746f6b656e2049440000000000000000604082015260600190565b60208082526021908201527f4552433732313a20617070726f76616c20746f2063757272656e74206f776e656040820152603960f91b606082015260800190565b6020808252603d908201527f4552433732313a20617070726f76652063616c6c6572206973206e6f7420746f60408201527f6b656e206f776e6572206f7220617070726f76656420666f7220616c6c000000606082015260800190565b602080825260139082015272496e646578206f7574206f6620626f756e647360681b604082015260600190565b6000602082528251608060208401526119e160a0840182611533565b90506020840151604084015260408401516060840152606084015160808401528091505092915050565b90815260200190565b60005b83811015611a2f578181015183820152602001611a17565b838111156109265750506000910152565b600281046001821680611a5457607f821691505b60208210811415611a7557634e487b7160e01b600052602260045260246000fd5b50919050565b6000600019821415611a9b57634e487b7160e01b81526011600452602481fd5b5060010190565b634e487b7160e01b600052604160045260246000fd5b6001600160e01b031981168114610a1d57600080fdfea2646970667358221220bf4adf0b17c2facd3f183af71d367e534c47b52fde1722c5e396bf089de0808964736f6c63430008010033",
  "immutableReferences": {},
  "source": "// SPDX-License-Identifier: MIT\npragma solidity ^0.8.1;\n\nimport \"@openzeppelin/contracts/token/ERC721/extensions/IERC721Enumerable.sol\";\nimport \"@openzeppelin/contracts/token/ERC721/ERC721.sol\";\nimport \"@openzeppelin/contracts/access/Ownable.sol\";\n\n\ncontract Wrestlers is ERC721, IERC721Enumerable, Ownable{\n    struct Wrestler {\n        string name;\n        uint256 strength;\n        uint256 wins;\n        uint256 losses;\n    }\n    mapping (uint256 => Wrestler) private wrestlers;\n    uint256 private wrestlerCount;\n    \n    constructor() ERC721(\"Wrestlers\", \"WRS\") {}\n    \n    function mint(string memory name, uint256 strength) external onlyOwner {\n        uint256 tokenId = wrestlerCount;\n        wrestlers[tokenId] = Wrestler(name, strength, 0, 0);\n        wrestlerCount++;\n        _mint(msg.sender, tokenId);\n    }\n    \n    function getWrestler(uint256 tokenId) public view returns (Wrestler memory) {\n        require(_exists(tokenId), \"Wrestler does not exist\");\n        return wrestlers[tokenId];\n    }\n    \n    function updateStrength(uint256 tokenId, uint256 newStrength) external onlyOwner {\n        require(_exists(tokenId), \"Wrestler does not exist\");\n        wrestlers[tokenId].strength = newStrength;\n    }\n    \n    function recordWin(uint256 tokenId) external onlyOwner {\n        require(_exists(tokenId), \"Wrestler does not exist\");\n        wrestlers[tokenId].wins++;\n    }\n    \n    function recordLoss(uint256 tokenId) external onlyOwner {\n        require(_exists(tokenId), \"Wrestler does not exist\");\n        wrestlers[tokenId].losses++;\n    }\n    \n    function totalSupply() public view virtual override returns (uint256) {\n        return wrestlerCount;\n    }\n\n    function tokenByIndex(uint256 index) public view virtual override returns (uint256) {\n        require(index < wrestlerCount, \"Index out of bounds\");\n        return index;\n    }\n\n    function tokenOfOwnerByIndex(address owner, uint256 index) public view virtual override returns (uint256) {\n        require(index < balanceOf(owner), \"Index out of bounds\");\n        return tokenOfOwnerByIndex(owner, index);\n    }\n\n    function belongsTo(address owner, uint256 tokenId) public view returns (bool) {\n        return ownerOf(tokenId) == owner;\n    }\n}",
  "sourcePath": "/Users/kunalkapoor/Desktop/finalassignment/contracts/wrestlers.sol",
  "compiler": {
    "name": "solc",
    "version": "0.8.1+commit.df193b15.Emscripten.clang"
  },
  "schemaVersion": "3.4.13",
  "updatedAt": "2023-03-30T14:39:23.263Z",
  "devdoc": {
    "kind": "dev",
    "methods": {
      "approve(address,uint256)": {
        "details": "See {IERC721-approve}."
      },
      "balanceOf(address)": {
        "details": "See {IERC721-balanceOf}."
      },
      "getApproved(uint256)": {
        "details": "See {IERC721-getApproved}."
      },
      "isApprovedForAll(address,address)": {
        "details": "See {IERC721-isApprovedForAll}."
      },
      "name()": {
        "details": "See {IERC721Metadata-name}."
      },
      "owner()": {
        "details": "Returns the address of the current owner."
      },
      "ownerOf(uint256)": {
        "details": "See {IERC721-ownerOf}."
      },
      "renounceOwnership()": {
        "details": "Leaves the contract without owner. It will not be possible to call `onlyOwner` functions anymore. Can only be called by the current owner. NOTE: Renouncing ownership will leave the contract without an owner, thereby removing any functionality that is only available to the owner."
      },
      "safeTransferFrom(address,address,uint256)": {
        "details": "See {IERC721-safeTransferFrom}."
      },
      "safeTransferFrom(address,address,uint256,bytes)": {
        "details": "See {IERC721-safeTransferFrom}."
      },
      "setApprovalForAll(address,bool)": {
        "details": "See {IERC721-setApprovalForAll}."
      },
      "supportsInterface(bytes4)": {
        "details": "See {IERC165-supportsInterface}."
      },
      "symbol()": {
        "details": "See {IERC721Metadata-symbol}."
      },
      "tokenByIndex(uint256)": {
        "details": "Returns a token ID at a given `index` of all the tokens stored by the contract. Use along with {totalSupply} to enumerate all tokens."
      },
      "tokenOfOwnerByIndex(address,uint256)": {
        "details": "Returns a token ID owned by `owner` at a given `index` of its token list. Use along with {balanceOf} to enumerate all of ``owner``'s tokens."
      },
      "tokenURI(uint256)": {
        "details": "See {IERC721Metadata-tokenURI}."
      },
      "totalSupply()": {
        "details": "Returns the total amount of tokens stored by the contract."
      },
      "transferFrom(address,address,uint256)": {
        "details": "See {IERC721-transferFrom}."
      },
      "transferOwnership(address)": {
        "details": "Transfers ownership of the contract to a new account (`newOwner`). Can only be called by the current owner."
      }
    },
    "version": 1
  },
  "userdoc": {
    "kind": "user",
    "methods": {},
    "version": 1
  }
}